:020000022000DC
:1060000000000420155506008F94020045F7020099
:106010008F9402008F9402008F9402000000000011
:106020000000000000000000000000008F9402004B
:106030008F940200000000008F94020015040300FA
:1060400091E902008F9402005D170300E5A00200B1
:10605000F5A002008F940200650C03008F940200EB
:106060008F940200E9010300D9010300B50E03007B
:106070008F9402008F9402008F9402008F9402008C
:106080008F940200C50E03008F9402008F940200CB
:106090008F9402008F940200B18805008F94020053
:1060A0008F9402008F9402008F9402008F9402005C
:1060B0008F9402008F940200000000000000000096
:1060C0008F9402008F9402008F94020075080300E1
:1060D000D50E03008F9402008F940200596B0300C9
:1060E0006D170300F1A202008F940200E90A030079
:0860F000000000008F94020083
:1070000040F8044B40F8045B40F8046B40F8047B04
:1070100040F8048B40F8049B40F804AB40F804BBF4
:1070200040F804CB40F804DB6846704781F000412B
:1070300002E000BF83F0004330B54FEA41044FEA5D
:10704000430594EA050F08BF90EA020F1FBF54EAF8
:10705000000C55EA020C7FEA645C7FEA655C00F094
:10706000E2804FEA5454D4EB5555B8BF6D420CDD65
:107070002C4480EA020281EA030382EA000083EAE8
:10708000010180EA020281EA0303362D88BF30BD88
:1070900011F0004F4FEA01314FF4801C4CEA1131DE
:1070A00002D0404261EB410113F0004F4FEA03333D
:1070B0004CEA133302D0524263EB430394EA050FC8
:1070C00000F0A780A4F10104D5F1200E0DDB02FA37
:1070D0000EFC22FA05F2801841F1000103FA0EF2CB
:1070E000801843FA05F359410EE0A5F120050EF191
:1070F000200E012A03FA0EFC28BF4CF0020C43FAC2
:1071000005F3C01851EBE37101F0004507D54FF0CE
:10711000000EDCF1000C7EEB00006EEB0101B1F51E
:10712000801F1BD3B1F5001F0CD349085FEA300064
:107130004FEA3C0C04F101044FEA445212F5800F6F
:1071400080F09A80BCF1004F08BF5FEA500C50F10C
:10715000000041EB045141EA050130BD5FEA4C0CEF
:10716000404141EB0101013C28BFB1F5801FE9D24C
:1071700091F0000F04BF01460020B1FA81F308BF6F
:107180002033A3F10B03B3F120020CDA0C3208DD3B
:1071900002F1140CC2F10C0201FA0CF021FA02F116
:1071A0000CE002F11402D8BFC2F1200C01FA02F186
:1071B00020FA0CFCDCBF41EA0C019040E41AA2BFAB
:1071C00001EB0451294330BD6FEA04041F3C1CDA73
:1071D0000C340EDC04F11404C4F1200220FA04F093
:1071E00001FA02F340EA030021FA04F345EA03013D
:1071F00030BDC4F10C04C4F1200220FA02F001FAFF
:1072000004F340EA0300294630BD21FA04F0294680
:1072100030BD94F0000F83F4801306BF81F4801119
:107220000134013D4EE77FEA645C18BF7FEA655C8C
:1072300029D094EA050F08BF90EA020F05D054EA5E
:10724000000C04BF1946104630BD91EA030F1EBF63
:107250000021002030BD5FEA545C05D14000494167
:1072600028BF41F0004130BD14F580043CBF01F55A
:10727000801130BD01F0004545F0FE4141F4700140
:107280004FF0000030BD7FEA645C1ABF194610461B
:107290007FEA655C1CBF0B46024650EA013406BF1C
:1072A00052EA033591EA030F41F4002130BD00BFDB
:1072B00090F0000F04BF0021704730B54FF4806498
:1072C00004F132044FF000054FF0000150E700BF19
:1072D00090F0000F04BF0021704730B54FF4806478
:1072E00004F1320410F0004548BF40424FF0000165
:1072F0003EE700BF42004FEAE2014FEA31014FEAA8
:1073000002701FBF12F07F4393F07F4F81F06051F6
:10731000704732F07F4208BF704793F07F4F04BF41
:1073200041F40021704730B54FF4607401F000451E
:1073300021F000411CE700BF50EA010208BF70477E
:1073400030B54FF000050AE050EA010208BF70476F
:1073500030B511F0004502D5404261EB41014FF4D8
:10736000806404F132045FEA915C3FF4D8AE4FF0E0
:1073700003025FEADC0C18BF03325FEADC0C18BFC3
:10738000033202EBDC02C2F1200300FA03FC20FA14
:1073900002F001FA03FE40EA0E0021FA02F1144461
:1073A000BDE600BF4FEA4102B2F1E04324BFB3F5AE
:1073B000001CDCF1FE5C0DD901F0004C4FEAC0026C
:1073C0004CEA5070B2F1004F40EB830008BF20F050
:1073D0000100704711F0804F21D113F13872BCBF0A
:1073E00001F00040704741F480114FEA5252C2F15F
:1073F0001802C2F1200C10FA0CF320FA02F018BFA8
:1074000040F001004FEAC1234FEAD32303FA0CFCFA
:1074100040EA0C0023FA02F34FEA4303CCE77FEA89
:10742000625307D150EA01331EBF4FF0FE4040F4D3
:107430004000704701F0004040F0FE4040F4000082
:10744000704700BF024B1A6912681A61704700BF8B
:10745000804F0120C460056146618761C0F81C80CF
:10746000C0F82090C0F824A0C0F828B0C0F82CD0F4
:1074700080ED0C8B80ED0E9B80ED10ABC0F808E02A
:107480000AF056BC2DE9F0412A4C00250326D4F819
:10749000E8700021013143189A0803F00303BA5C35
:1074A0005B0042FA03F303F00303022BF2D0D4F89B
:1074B000F43009018A0803EB001089B300EB820263
:1074C0000368190729D1D4F8F410994225D8D4F8C3
:1074D000F8709F4221D95B1A48BF0F331B11D4F8B3
:1074E000E8E04FEA930C03F003011EF80C8049001A
:1074F00048FA01F707F00307012F0ED106FA01F150
:1075000041EA080104EB85083F2D0EF80C109ABFE4
:107510000135C8F80431C4F8007104309042CFD16D
:107520002DB1013D04EB8503D3F80401AFE7BDE8BD
:10753000F08100BF804F01202DE9F0473B4CD4E99A
:107540003D120023C0E90233C0E90433521AC0E9F6
:1075500000231D4683619C461F4619461A469A46DB
:1075600099469E46D4F8E86016F80A304FEA490971
:1075700043FA09F303F00303012B4DD0022B47D04C
:10758000002B3ED0D4F8EC600132B2EB860F4FEA0C
:1075900086080FD0D4F8E8604FEA920A02F0030997
:1075A00016F80A304FEA4906334113F0030301D0BD
:1075B000012BD7D1012911D0022902BF466901361A
:1075C000466186698E4238BF816190450FD0012B9C
:1075D00026D04FEA920A02F00309C3E70669013692
:1075E000066186698E4238BF81619045EFD177454B
:1075F00000D9C7602D014FEA0C13C0E90153BDE863
:10760000F0870CF1010CC0F808C001371946B9E742
:10761000013545600131B5E7013545601946B1E7EF
:10762000BE4501D2C760BE460027D2E7804F012089
:1076300050F8310010B1043818BF01207047000025
:10764000054B5B695A68824204D8801A043053F8AB
:10765000200070471B68F5E7804F0120014441F28C
:107660000553884204D3D8B2012838BF012070479F
:1076700010F8012B03EB43135340F2E708B5FFF773
:10768000DFFF023008BD08B5FFF7DAFF43780B6073
:10769000023008BD43688B422CBF591A002141605B
:1076A000704700002DE9F74F89469DF830101746C6
:1076B0000D9A11F0DF0F0646A2EB07023DD03029EC
:1076C00025490CA813BF804688464FF0100A4FF09A
:1076D000010A13F0800535D002EBD2746510A2EBDD
:1076E0006404002D35DDAB46DA45524673683068D8
:1076F000A8BF5A46414601929847019AABEB020B4C
:10770000BBF1000FF0DC2FB1736830683A46494690
:1077100098473D44002C0CDD2544A2455746A8BFA0
:107720002746736830683A464146E41B9847002C68
:10773000F3DC284603B0BDE8F08FDFF820804FF07F
:10774000100AC6E713F0010401D11546C9E7144633
:10775000D9E70025D7E700BF695C0700585C070040
:107760002DE9F04389B006460020119D9DF8488020
:10777000139F8DF80F000AB381421ADA2D228DF87B
:107780000F204942109A08ACA2F10A000DF110092D
:10779000B1FBF3FC03FB1C12092A8CBF1218303218
:1077A00004F8012D4C458E4661460ED07345EFD945
:1077B0000BE0A80727D52B228DF80F200029E1D157
:1077C00030238DF81F300DF11F0415F040099DF88E
:1077D0000F301CD023B30122CDE900822B460DF1DE
:1077E0000F013046FFF75EFF013F814608AACDE951
:1077F00000872B46121B21463046FFF753FF4844B3
:1078000009B0BDE8F0836A07D8D52022D4E7002B61
:10781000ECD004AA9442E9D904F8013C013CE5E724
:107820009946E3E790F9001003780029024601DB4E
:107830001846704703F07F004023184206D112F823
:10784000013F03F0C001802904D0704720EA030003
:107850005B08F2E703F03F0343EA8010EFE7431CC5
:1078600018460133027802F0C002802AF8D070472F
:1078700001440346002099421A4600D87047127806
:1078800002F0C002802A03F1010318BF0130F2E7C1
:107890007F289DBF024B185CC0F34000002070475A
:1078A000C4DF06007F289DBF024B185CC0F3C000F8
:1078B00000207047C4DF06007F289DBF024B185C84
:1078C000C0F3800000207047C4DF06007F289DBF02
:1078D000024B185CC0F3001000207047C4DF0600A4
:1078E0007F289DBF024B185CC0F3401000207047FA
:1078F000C4DF060008B50246FFF7E8FF00B12032FA
:10790000104608BD08B50246FFF7EAFF00B1203A6D
:10791000104608BD10B501440246E52400209142FE
:1079200003D8B0FA80F0400915E012F8013B20B10D
:107930001B0611D5431ED8B2F1E7BF2B09D9F72B8F
:1079400009D8DB0803F0060344FA03F303F003004D
:10795000E5E71B06E3D510BD0020FCE702398142B4
:107960000B4603D20233181A401070471A880239A6
:10797000002AF4D0F6E7B2EB131F70B54FEA1314E8
:1079800015D9121B03F00F0301EB440115460E46F7
:10799000012D31F8024B18BF3468DC40A4B2013D20
:1079A00020F8024BF3D104B9013A104670BD002211
:1079B000FBE7F0B5059F0024D21B2646A74210D155
:1079C00000EB470C01EB47010024A24214D10CEB61
:1079D00042031EB101212CF812100233181A401074
:1079E000F0BD31F8145033F814C06544354420F824
:1079F00014502E0C0134E1E731F8145035442CF8C2
:107A000014502E0C0134E0E7F0B4049F0025D21B83
:107A10002C46AF420BD100EB470601EB4705002394
:107A20009A420FD106EB4201F0BCFFF797BF31F845
:107A30001560344433F81560A41B20F81540241455
:107A40000135E6E735F813100C4426F813402414EA
:107A50000133E5E710B500EB410002EB410209B943
:107A6000084610BD30F8023D32F8024D1B1B002BBA
:107A700002DB04D10139F2E74FF0FF30F1E70120DA
:107A8000EFE710B5D0E90121034601EB42020020E7
:107A9000914204D31B78DB0748BF404210BD32F847
:107AA000024D44EA0040F3E72DE9F04371B19F181D
:107AB000D0E901940025A4F102084FF0010EAC4674
:107AC0001A44B9F1000F03D1BDE8F0831F46EFE778
:107AD00038F8024F0CF1100C44EA0545BCF1070FD1
:107AE00002DC09F1FF39ECE70678ACB2F60742BFD9
:107AF000E4435EFA84FE1FFA8EF4E4B248BFCEF38C
:107B0000072E49B17E1E07F8014CB342DCD0ACF120
:107B1000080C2D0A3746E1E73E4606F8014B96422F
:107B2000F4E70000D0E901329FED0C0A9FED0C7ADA
:107B300002EB43039A4205D30378DB0748BFB1EE5B
:107B4000400A704733F8021D07EE901AF8EEE77A04
:107B5000E0EE077AB0EE670AECE700BF0000000035
:107B600000008047D0E9023293423DBF5A1C826038
:107B700018784FF0FF30704790F8703083B1036988
:107B8000C3614369036283694362836E1A78026149
:107B90005A7842619B7883610323A0F87230704762
:107BA000C2690261026A4261426A82614366F4E725
:107BB00010B502690A2A04463BD1836A0133836205
:107BC0000123E36263692361A369636194F8703000
:107BD000002B36D0B4F87230626E93421FBF591C2E
:107BE000A26EA4F87210D35C08BF0023A36163697E
:107BF0000D2B08D1A3690A229342626103D1D4E913
:107C000001039847A061A369013306D163695A1C37
:107C100003D00A2B1CBF0A23A36194F87030ABB1C8
:107C200023699BB984F870302046BDE81040FFF707
:107C3000A3BFC36A092A04BF073323F00703013334
:107C4000BFE7D4E901039847A061D0E710BD70B544
:107C500004460D4600262269531C01D1304670BDF2
:107C60000A2A08D115B1636B002BF7D02046FFF725
:107C70009FFF0126EFE71046FFF70AFE18B12046E6
:107C8000FFF796FFE7E7232A08D12046FFF790FF8A
:107C900023695A1CDFD00A2BF7D1DCE75C2ADDD13F
:107CA00063690A2BDAD12046FFF782FFE7E7D0E9C4
:107CB0000432013B036152F8230070470369C94352
:107CC0001944436953F821007047B0F59F7F07D0EE
:107CD00010F0010306D043080CBF012000207047BC
:107CE0000120704718467047B0F5AF7F07D010F0FD
:107CF000010306D0430814BF012000207047012073
:107D0000704718467047000010F0010204D040F0A0
:107D10000100086001207047A8B110F003030FD1E3
:107D20000279372A0ED183680B6013F00100F1D17C
:107D30009A0708D11868044BC31A58425841704733
:107D40001046704718467047BC52070010B50368CC
:107D500013B91360184610BD9C0702D010600120B3
:107D6000F9E71C798C42F9D103F1080111605868D8
:107D7000000AF0E730B5058D04460022954201D88F
:107D8000002030BDE36A03EBC20043688B42F8D0A9
:107D90000132F3E7838B426A01339BB28383918C78
:107DA000994238BF93847047F7B51E4659B111F018
:107DB000030511D14F68FCB294420DD13F0A01F185
:107DC0000804BD4201DB03B0F0BD54F8041B019070
:107DD0000135B0470198F4E7334603B0BDE8F04001
:107DE00018470000024B89689722FFF7DDBF00BFEC
:107DF000C5980400024B89686722FFF7D5BF00BF12
:107E0000E762050031B1026801F00303134304BFC8
:107E10000B680360704770B504460D46104619465E
:107E2000FFF7A8FF037833B96D681A4620462B4642
:107E3000BDE870401847012BF6D02D684288022B10
:107E40002046AC4608BF0023BDE8704018BF0123A0
:107E5000604737B50DF105040B46214602F07F055A
:107E6000D20904F8015DF9D1091B984701AD01461B
:107E70002346AB4205D19DF804201B1BC25403B01E
:107E800030BD13F8012B62F07F0201F8012BF0E7FF
:107E90004379026A032B88BF036B114494BF0346E6
:107EA0009B1801621846704710B50C460121FFF778
:107EB000EFFF047010BD4279836A032A88BF426ACB
:107EC000194484BFD218036B816294BF03469B1888
:107ED0001846704710B50C460121FFF7ECFF0470FF
:107EE00010BD000013B504460192FFF7F3FF019A9D
:107EF0000349204602B0BDE81040FFF7AABF00BF0B
:107F0000B77E020030B4C36815465C8B9A8B038F32
:107F10001444C28E14445A1C02871A194379042B44
:107F200004BFC36B43F8225030BCFFF7DBBF2833DC
:107F3000D9B2FFF7D7BF38B50D4603211446FFF776
:107F4000BAFF4470240A0570847038BD38B543798F
:107F5000032B81BF846AC369C4F1FF2404F57F0445
:107F600084BF53F82230FD340D464FF003018CBF1F
:107F7000E4180024FFF79FFF4470240A0570847002
:107F800038BD38B54379032B81BF846AC369C4F512
:107F9000FF4453F8223088BF7D340D464FF0030173
:107FA0008CBFE4180024FFF786FF4470241205708C
:107FB000847038BD4379012B09D083681944C368A4
:107FC00081605A8C9142C8BF5984002383717047E5
:107FD00070B501211D4606461446FFF7EBFF45B973
:107FE0000F2C06D8A4F15001C9B2BDE87040FFF7CC
:107FF00071BF05F1190122463046C9B2BDE8704093
:10800000FFF770BF70B514460E461B340121FFF711
:10801000D1FF3246E1B2BDE87040FFF78CBF70B5CA
:108020004FF0FF311D4606461446FFF7C3FF45B922
:108030000F2C06D8A4F14001C9B2BDE87040FFF78B
:1080400049BF05F1220122463046C9B2BDE8704061
:10805000FFF748BF70B514460E4624344FF0FF3189
:10806000FFF7A8FF3246E1B2BDE87040FFF763BFFB
:1080700070B514460E462A340021FFF79BFF3246A6
:10808000E1B2BDE87040FFF756BFF7B5DDE908760D
:10809000C91AD4B243EA07220546A1EB470101926F
:1080A0005EB10239FFF786FF611C019AC9B228460A
:1080B00003B0BDE8F040FFF715BFFFF77BFF019A63
:1080C0002146F4E713B501910021FFF773FF019AF0
:1080D0001D2102B0BDE81040FFF72DBF10B54FF0D5
:1080E000FF31FFF767FFBDE810402121FFF7F2BE27
:1080F00038B50D460021FFF75DFF4379012B05D010
:10810000032B9EBFC369826A43F8252038BD13B58F
:1081100001910121FFF74EFF019A162102B0BDE83F
:108120001040FFF708BF10B50121FFF743FFBDE87E
:1081300010401821FFF7CEBE10B50121FFF73AFF1E
:10814000BDE810403021FFF7C5BE10B54FF0FF313C
:10815000FFF730FFBDE810403221FFF7BBBE10B57E
:108160000021FFF727FFBDE810403321FFF7B2BE23
:1081700010B50021FFF71EFFBDE810403421FFF7C6
:10818000A9BE13B501910021FFF714FF019A352113
:1081900002B0BDE81040FFF7F4BE10B54FF0FF315C
:1081A000FFF708FFBDE810404121FFF793BE38B547
:1081B0000C1E14BF03210021FFF7FCFE002C18BF8A
:1081C0004721BDE8384008BF4221FFF783BE10B504
:1081D0000021FFF7EFFEBDE810404421FFF77ABE13
:1081E000302937B50C461AD031291BD10125072477
:1081F0004FF0FF310190FFF7DDFEA4F12901019856
:10820000C9B2FFF767FE019875B10021FFF7D2FEF2
:108210000198D32103B0BDE83040FFF75BBE0125D4
:108220000624E5E70025E3E703B030BD70B5032A77
:108230000D46144614BFC5F1010101215034FFF76A
:10824000B9FE2A46E1B2BDE87040FFF74BBE10B55B
:108250006FF00101FFF7AEFEBDE810405421FFF7BB
:1082600039BE2DE9F74F05460C46904699461BB19D
:108270000B7E43F008030B76A4F81E806B6A1B7814
:10828000002B4DD159EA0803A86A4CD10121FFF710
:1082900091FE6269602103B0BDE8F04FFFF732BE86
:1082A000DB6A03EBC70B13F83730033B012B1AD8FB
:1082B0004FF0000A14E0E36A03EBCA0213F83A3005
:1082C000042B0BD1DBF804105368994206D1BBF89C
:1082D0000220A86A0023FFF77BFE01360AF1010A9B
:1082E000238D5345E7DC01376B6A1A8DBA42D7DC20
:1082F000002EC7D059EA0803A86AF5B21AD1C6F110
:1083000001010190FFF756FE626962210198FFF7B3
:10831000F9FD0198294603B0BDE8F04FFFF7DABD3B
:1083200000273E46E0E74FF0FF31FFF743FE62696A
:108330006121B0E7F1430190FFF73CFE62696321E0
:10834000E4E70000F8B504460E4611461A4600233D
:1083500085794769837143610D4BFFF725FDA3685C
:10836000A3B9E18A39B1A28A2AB9A06AFFF75EFFF0
:10837000A06AFFF7D8FEA38AE28A31462046FFF7BB
:1083800070FF003D18BF0125A5716761F8BD00BFF2
:10839000099A040007B5CDE900230B4664220021A9
:1083A000FFF773FE03B05DF804FB10B54FF0FF312B
:1083B000FFF700FE0123BDE8104083715B21FFF74A
:1083C00089BD38B50C464942FFF7F4FDC268137EFB
:1083D00043F0040304F15D011376BDE83840C9B2EF
:1083E000FFF778BD2DE9F74F10EE104A002C9DF8ED
:1083F0003050044624DAB4EE400AF1EE10FA1FD6EB
:108400002D2504F8015BB1EE400A9FEDC47AF0EE31
:10841000C07AF4EE477AF1EE10FA02F0200E14DD85
:108420008EF0490323708EF046058EF04E03637084
:10843000A570E31C00221A70181A03B0BDE8F08F73
:10844000002DE2D004F8015BDFE7B4EE400AF1EE64
:1084500010FA08D74EF04E028EF04105227065707A
:10846000E31CA270E6E7002B42F02002B8BF06230F
:10847000672A02D1002B08BF0123251A491B10EEE1
:10848000105A002D01F1FF3748D1662A38D15D1C02
:10849000AF424FF00006D8BFCB1E591C6627B4462A
:1084A0003546652F23EAE37840F0098108F10101A0
:1084B000002301934FF02E0BB2EE047A019B8B4206
:1084C000C0F20681662A40F03381A94280F286819B
:1084D00096B10A2195FBF1F301FB135593FBF1F2E1
:1084E00001FB12324EF0450E3032303584F800E098
:1084F0006670A270E570043400232370201A9CE794
:108500005D1DAF42D8BFCB1F652A17464FF0000153
:1085100040F0CF802B268C460D46C2E7B5F17E5F3A
:108520006FD2DFED7F7ADFF80082DFF800A2B4EED1
:10853000E70AF1EE10FA4FF00006ACBF4FF0310938
:108540004FF030094FF0200C3546B8EC017AB4EE0C
:10855000C07AF1EE10FAC4BF0AEB060B9BED007A6D
:1085600006F10406C4BF654420EE070A182E4FEA40
:108570006C0CEAD110EE106AB6F17E5F27D2B4EE31
:10858000E70AF1EE10FA1DDB002D14BF2D262B2675
:10859000B7EE000A662A03D0672A28D1042D26DC0C
:1085A000672A04BF05F1FF369B195E1CB742D8BF8E
:1085B000CB1E84F8009063B9013419461E464FF073
:1085C000FF3C58E0F2EE047A20EE270A01352D2612
:1085D000E0E72E216170302619460234013D6AD051
:1085E00009B90E46EBE704F8016B0139F6E78F1F76
:1085F000BB4202DB672A60D0CB1F174600218C46A6
:108600004FE70026DFF82481DFF81C914FF0200CA3
:108610003546F8EC017AF4EEC07AF1EE10FA9CBF20
:1086200009EB060ADAED007A06F104069CBF654400
:1086300020EE270A182E4FEA6C0CEAD1FDEEC07A24
:1086400017EE906A092EC2BFDFED367A013520EEB3
:10865000270A662A11D1AF4217DD591901318F421D
:1086600005DC7F1B012FA7F1020308BF0023E918D7
:108670000131AC460026662713E7652A05D0672A34
:108680000CD0174600212B26B9E78E1FB34200DB22
:10869000CB1F00212B268C46652702E71E1DB74203
:1086A00000DC8B1F9D4201DB6727EBE7691C5B1A2F
:1086B000DDE70E462FE72E4681E73B469DE7672F15
:1086C0007FF4F6AE002BDABF012188464146EFE683
:1086D000FDEEC07A04F1010A17EE903A002BA8BF14
:1086E00003F13009019BACBF5FFA89F94FF0300903
:1086F000634584F8009006D1B8F1000F03D004F16F
:10870000020A84F801B0F8EEE77A019B30EE670ABE
:10871000013320EE070A01935446CFE6FFFF7F7F27
:10872000F8FF7F3FCDCCCC3DBC1C0700D41C07001C
:10873000F1EE047AB4EEE70AF1EE10FA28DB611EDE
:108740004FF030090B782E2B8C4601F1FF31F9D018
:10875000A3F1300ABAF1090F2CD90CF1010C9CF8E5
:108760000030302B14D19CF801102E292FD1662F08
:108770002DD02D2E8CF800108CF8013025D1013D24
:1087800008BF2B2623469C4523D331238CF8003089
:10879000672A7FF49DAEB8F1000F3FF499AE2346EF
:1087A0001C46013B14F8012C302AF9D02E2A08BFB0
:1087B0001C468DE6392B03D001338CF80030CEE710
:1087C000604581F80190BDD1C9E70135DAE7013490
:1087D000D8E713F8011C03F80119D4E7F1EE047A85
:1087E000B4EEE70AF1EE10FAA9DA71E600F003033D
:1087F000022B05D1034B0340981F18BF012070477F
:1088000000207047070080FF50F8210010B10438A5
:1088100018BF01207047704708B5C307024608D447
:10882000074B0340062B06D0FFF7E0FF28B910687E
:1088300008BD0448FCE70448FAE70448F8E700BF2D
:10884000070080FFBC520700405607006450070035
:1088500038B5816804460846FFF7DEFF43690546E0
:1088600005209847E168B1EB600F0ADA49002B6AEE
:10887000A068042241F001019847E3680133E360F6
:1088800038BD0020FCE708B5FFF7C6FFBDE808408B
:10889000C088FEF7F3BE7047044B0B60044BC1E980
:1088A00001300023CB600846704700BF60540700CA
:1088B0005188020013B504460192FFF7ADFFC36A69
:1088C0003BB1019A20469847B0FA80F0400902B0C7
:1088D00010BD1846FBE7062806BF480040F001001F
:1088E00000207047042803D0052808D000207047D6
:1088F0008A68054B0548002A08BF184670478868F3
:10890000400040F0010070477429070080290700EB
:10891000074BC1E900300023C1E90233054B02686F
:108920009A4202BF4368C3F317238B60084670471F
:1089300048DF060070530700136870B56BB94468D0
:10894000A51C50F825509C4207D055F82360B14231
:1089500004D1023350F82330136070BD0133F2E7C5
:10896000136853B9B1F54E7F08D1436823F0030370
:1089700043F00203A3F1FF431360704740F27123F9
:108980009942FAD18368F1E7044B0B60037A0B71CB
:1089900043688B600023CB60084670473C030700A8
:1089A000044B0B6001230B7100238860CB600846E9
:1089B000704700BF3C03070038B585680B68024666
:1089C0000C46AB4201D3002009E01946D068FEF7FF
:1089D0002FFE591C20B12160D06800EBC30038BDC8
:1089E0000B46EEE7042803D0052809D00020704785
:1089F0004B68074833F00F03064B08BF1846704713
:108A00004868C0F31B10400040F00100704700BFF1
:108A1000802907007429070010B4C4680023A44605
:108A20005DF8044B604700221146FFF7F5BF0000D8
:108A300038B504461546FFF7EFFE074BC2689A4269
:108A400018BF2469A36813B90B602B6038BDE38895
:108A50000B60A368F9E700BF5D82030001F1FF43EB
:108A600023F0030307EE903A072805D8DFE800F06B
:108A7000051D04040704101800210846704710481B
:108A80001049F5EE407AF1EE10FA08BF0146F4E71E
:108A9000FDEEE77A17EE901A490041F00101ECE78C
:108AA000F5EEC07AF1EE10FAE7D5F1EE677A17EE3F
:108AB000901A21F0030141F00201A1F1FF41DCE72E
:108AC0007429070080290700C30706D54010002835
:108AD0000DDB14BF012000207047836853B1037978
:108AE00013F0010F14BF4FF0FF30012070474FF01B
:108AF000FF30704718467047044B0B60044BC1E9C8
:108B000001300023CB600846704700BF6054070067
:108B1000158B0200D0E9022391688B423BBFD268DB
:108B200052F823200022013338BFC360104670473B
:108B3000004870477C29070043681847C268002A2C
:108B400005DDD0E90113994206DB00230AE0FCD0E1
:108B5000D0E901139942F8DD41684B000A4443F023
:108B6000010342601846704710B5D0E90142C3685E
:108B70000348C1E90223C1E90004084610BD00BF53
:108B8000CC640700820708D10068064B984206D0E3
:108B9000054BC31A584258417047002070470120C6
:108BA000704700BF50550700A0500700044B0B60F2
:108BB000044BC1E901300023CB600846704700BF79
:108BC00060540700C98B020038B58268C1685568D7
:108BD0000346A94201D3002008E0D068FFF714FE45
:108BE0004C1C20B1DC60D36853F8210038BD21460D
:108BF000EFE7000010F0030203D10168084B99422F
:108C000009D010F0010306D13AB90068054BC31A28
:108C1000584258417047012070471846704700BFBE
:108C2000944D0700BC52070010B50446FFF7E2FF61
:108C300028B92046FFF7DAFD00F0010010BD012041
:108C4000FAE70000044B0B60044BC1E9013000233C
:108C5000CB600846704700BF60540700AD8C02002F
:108C6000884230B513D20378303B092B0FD800234C
:108C700013600A2510F8014B1368303C05FB0343D1
:108C80008142136003D00378303B092BF2D930BD09
:108C9000054A0240062A02D1C008FEF7F4BC8268E9
:108CA0000A60C068704700BF070080FF13B5044624
:108CB00001A98068FFF7ECFFE268019B9A423FBF81
:108CC000835C5B0043F0010001322CBF0020E260B6
:108CD00002B010BD73B50546084601A9FFF7D8FFDD
:108CE000019B064613B3134B9D4221D0124B9D426C
:108CF0004FF0000405D1224613E0305DA847A8B12B
:108D00000134019BA342F8D80C4802B070BD315D1C
:108D10000846FEF7C7FD18B10846A847024628B125
:108D20000134019BA342F2D8002AEDD10448ECE7BC
:108D30000024E0E7CD780200E178020080290700F6
:108D40007429070001460148FFF7C4BF917802006B
:108D500001460148FFF7BEBFA57802000146014861
:108D6000FFF7B8BFB978020001460148FFF7B2BF6C
:108D7000CD78020001460148FFF7ACBFE178020060
:108D8000012A13B50C460AD101A9FFF781FF019B07
:108D9000636042232060A360002002B010BD002366
:108DA000C1E900334FF0FF338B600120F5E700008D
:108DB000044B0B60044BC1E901300023CB60084633
:108DC000704700BF60540700B56B050013B504463B
:108DD000084601A9FFF75CFF042C04D0052C09D03C
:108DE000002002B010BD019A0648074B002A08BFB8
:108DF0001846F6E70199FEF73BFD400040F0010000
:108E0000EFE700BF8029070074290700D0E902239B
:108E100051688B4237BF991C002252F82120013340
:108E200038BFC36010467047044B0B60044BC1E968
:108E300001300023CB600846704700BF6054070034
:108E40000D8E0200F8B50E46114C1249124B8842A5
:108E50001AD0C268A24203D0306001242046F8BD77
:108E6000406B98B102689A42F1D1476800F1080559
:108E700005EB87070024BD42F0D255F8040B3146BC
:108E8000FFF7E0FF0444F6E70024E7E70446E5E7E0
:108E900029280500E8530700F4560700F0B50C46F2
:108EA00085B054F8046B019200220392054603A991
:108EB0003068FFF7C7FF0398019BC7682246691E09
:108EC000B8473061014805B0F0BD00BF7C290700FC
:108ED0002DE9F041134E144F0D46A8421CD010F05E
:108EE00003031BD10268B2421AD1406B90B10368F0
:108EF000BB42F2D1044654F8043F00EB830000F17A
:108F0000040854F8040FA045E7D92946FFF7E0FF0D
:108F10000028F6D0BDE8F0810120FBE70020F9E74A
:108F20001846F7E730570700F4560700830707D1C4
:108F30000268064B9A4203D1C268054B9A4202D09E
:108F40000449FFF7C5BF0120704700BF3057070035
:108F50005D820300D845070008B5FFF75DFCBDE85A
:108F60000840FFF7E3BF38B504460D46FFF7F4FFAE
:108F700018B12046FFF750FC044629462046BDE8BC
:108F80003840FFF7A5BF70B504460D46FFF744FC17
:108F90000646FFF79DFF20B1AE4200D0246920466F
:108FA00070BD0446FBE7000010B5044608460A49B8
:108FB000FFF7E9FF042C03D0052C08D0002010BDDA
:108FC0008268064B0648002A08BF1846F7E7806803
:108FD000400040F00100F2E7F85207007429070052
:108FE000802907000C4970B5FFF7CDFF836803EBBC
:108FF000D37149109B0000229142A3F1040301DCCC
:10900000064870BDC468E65854F8225044F82260FF
:10901000C4680132E550EFE7F85207007C290700E9
:1090200010B50446FFF7F8FB0422036A2046BDE8AA
:109030001040184713B504460192FFF7EDFB019A63
:10904000036A204602B0BDE81040184710B5044638
:10905000FFF7E2FB0022036A2046BDE810401847F4
:1090600013B504460191FFF7D7FB019A83692146A6
:109070002E2002B0BDE81040184710B5044608463F
:10908000FFF7CAFB006B18B10388A34218BF00208A
:1090900010BD01464FF44870FFF7EFBF2DE9F047D0
:1090A0001E4681468A461546FFF7F3FF9DF820705D
:1090B000D0E9018317F0020F4FF0000418BF984663
:1090C000346007F001076DB133462A4651464846E1
:1090D000C04738B1431C08D133680B2B02D10CB107
:1090E000002333602046BDE8F0871FB982442D1A63
:1090F0000444E8E70446F5E7014BD868704700BF31
:10910000804F0120014B9868704700BF804F0120BD
:10911000024B0348002283F806227047804F01204B
:109120007C290700024B0348012283F8062270477E
:10913000804F01207C290700044B054A93F8060262
:10914000044B002814BF104618467047804F01207A
:10915000802907007429070000B589B001A8FEF72F
:10916000EBF90398400040F0010009B05DF804FB02
:1091700000B589B001A8FEF7DFF90298400040F081
:10918000010009B05DF804FB034A0448B2F8043258
:10919000013BA2F804327047804F01207C29070070
:1091A000034A0448B2F804320133A2F8043270478B
:1091B000804F01207C29070010B50268002312F8B7
:1091C000011B01F07F04090644EAC313F7D40260CF
:1091D000184610BD0138013910F8012F11F8013F70
:1091E0008AB163B97F2A07D80B4B9B5C13F00C0F35
:1091F0000FD15F3A53425341C3F1010306E09A4253
:10920000EAD000207047B3FA83F35B0903F0010052
:1092100070470123F0E700BFC4DF0600002813DD1C
:10922000002908DD6FF0404393FBF1F18142ACBFB0
:109230000020012070474FF0404393FBF0F088423C
:10924000D4BF002001207047002905DD4FF04043C6
:1092500093FBF1F18142F3E70028EBD06FF040433C
:1092600093FBF0F0E2E7782820D86D2807D8622831
:1092700017D0662817D0612808BF07207047A0F1D3
:109280006E030A2B12D8DFE803F01011111106113A
:10929000111108110A000D2070470B2070475C2047
:1092A0007047082070470C2070470A2070471FB590
:1092B0008388C2889A42044610D3172B15D90123FC
:1092C000009300F1080103AB00681822FFF7E6FEE7
:1092D000039B80B2A08043B938B1E380E088431C8F
:1092E000E3800444207A04B010BD4FF0FF30FAE769
:1092F000BFF34F8F0549064BCA6802F4E06213437F
:10930000CB60BFF34F8F00BFFDE700BF00ED00E073
:109310000400FA052DE9F04F00228578DFF8A4C09B
:10932000DFF8A4E0072416461746038803F1FF3848
:10933000424505DB0B44084603F8017CBDE8F08F8D
:109340004FF00009CA46C8464B465B0015F0800F37
:1093500008F1010818BF43F001035FFA88F884B9E7
:10936000741CE6B250FA84F4A5780724BAF1000F11
:1093700001D053450AD31CF808B00BEB4A0AD94474
:10938000E3E76D00013CEDB2E4B2EFE74B44A3EB41
:109390000A0301EB02081EF803307F2B04DC8B5418
:1093A00001231A4492B2C0E74FEAA31903F03F0326
:1093B00063F07F0369F03F0901F8029088F80130FB
:1093C0000223EEE7A41F070019B00700034B1B6838
:1093D000DB0700D500BE0020704700BFF0ED00E0C5
:1093E0000120704708B50B7803F06003202B0FD1E4
:1093F000084B8A88187890420AD14A78202A05D1E9
:10940000054A1AB1991D0020AFF30080012000E049
:10941000002008BD802601200000000000207047C9
:109420004DDF70474EDF70474FDF704750DF7047AA
:1094300012DF704748B9064BD3F8D40030B1034669
:10944000C0680028FBD1986870470020704700BFB3
:10945000804F0120012808B50BD8FFF7EBFF38B18A
:10946000836943B1808800F03000203818BF0120A4
:1094700008BD0020FCE71846FAE7807A400040F07B
:1094800001007047C07A400040F001007047FEE7DD
:1094900061DF70474BDF704730B5084A52F8CC3F68
:1094A0003BB19C6884421C6804D15D688D4201D147
:1094B000146030BD1A462346F2E700BF804F0120FA
:1094C000B1DF7047B2DF704730B5124D044600205F
:1094D000E8B14378FF2B18D0C388033323F003038C
:1094E00008331844A84210D84378002BF0D04378B2
:1094F0008B42EDD1FF2907D0037803F00103A3428B
:10950000E6D143889342E3D130BD0020FCE7024816
:10951000EDE700BFFB1F0F0004A00E004288437858
:10952000007843EA022340EA032070470B0A0170E7
:1095300043700B0C090E8370C1707047036A0239C7
:10954000023B8B4283BFC389406B01FB03000020B9
:109550007047836A02680433D289490AB1FBF2F189
:10956000186830B1814202D3091A0833F8E7586805
:109570000844704700F10B010022D30143EA520373
:1095800010F8012B52FA83F38842DAB2F5D1104673
:109590007047CA7E8B7E032843EA022301BF487DC1
:1095A0000A7D42EA002243EA024318467047C2F3AA
:1095B00007238A76CB760378032B01BF120C0A753A
:1095C000120A4A757047000010B50749002331F8A8
:1095D000024B84429AB203D00133802BF7D11A4652
:1095E00002F18000C0B210BDC8D0060070B51E4B9D
:1095F0001E4AB0F5805F28BF1346191D31F8043CA0
:109600000A46ABB1984213D331F8024C250AE6B2B0
:1096100053FA84F4A04221DA082D09D8DFE805F0D6
:1096200005090F11131517191B00C01A31F8100086
:1096300070BDC31A03F00103C01A80B2F8E71038F6
:10964000FBE72038F9E73038F7E71A38F5E7083054
:10965000F3E75038F1E7A0F5E350EEE70431002DD1
:10966000CCD102EB4603C8E74EFE060040000700DF
:10967000830705D16422B0FBF2F302FB13034BB95D
:109680004FF4C872B0FBF2F302FB1300B0FA80F0A3
:109690004009704701207047084B4A1E10B533F847
:1096A000114033F812300229A4EB030403D1FFF771
:1096B000DFFF00B10134204610BD00BF08010700E4
:1096C0004B4BA0F59E00A0F5D05070B590FBF3F485
:1096D00003FB14000028BCBF00F5A83004F1FF34E0
:1096E0004FF03C02B8BF00F5C0704FF46163B0FBAF
:1096F000F3F30B71B0FBF2F302FB1300B3FBF2F5D3
:1097000002FB1535A31C072293FBF2F2C2EBC20247
:109710009B1A48BF0733002CB8BF04F50E34CB7139
:10972000BABF04F2B1244FF0FF330023887148F62A
:10973000AC623048B4FBF2F2042A08BF032200FBFB
:10974000024440F2B5562C4894FBF6F6192E08BF99
:10975000182600FB06444D7140F26D1594FBF5F59B
:10976000042D08BF03256FF4B67000FB05409C0074
:10977000234402EB820203EB830302EB82021B0110
:1097800003EB820303EB86032B449BB203F5FA62DF
:109790001A4D0A80002215F9014B844224DDD2B211
:1097A000941CE4B20B2C8ABF0A3A8C708A708A78B7
:1097B000134C02F10102D2B202F1FF3588BF03F26D
:1097C000D17300F1010034F8154088BF0B80C3B29B
:1097D000022A0888CB708A701C4403D9FFF748FF1F
:1097E00000B101340C8170BD001B0132D3E700BF12
:1097F000805101005471FFFF4BFAFFFFFC0007008E
:1098000008010700002910B514680CDA2144036828
:10981000002BBCBF1B19036003688B42D4BFC91A5D
:109820000021116010BDA14228BF2146EFE70129A8
:109830001DBF16224FF0FF301A6000207047000055
:10984000004870477C290700064B1B68082B06D18F
:10985000054B1B68032B02D8044AD05C70470020DC
:10986000704700BF3001001034010010A0CF060087
:1098700041DF704729DF704728DF704707B50023B5
:109880000DF107008DF80730FFF7D2FD9DF80700B6
:10989000003818BF012003B05DF804FB10B5FFF7D6
:1098A000EDFF054C18B9207004E0FFF7E1FF2378C5
:1098B000012BFAD0207810BD3D520120074B10B586
:1098C00001241C70FFF7D6FF28B9FFF7E7FF023825
:1098D00018BF012010BD0020FCE700BF3D52012051
:1098E000F0B508B3204E002133463546984204D0E7
:1098F00001310C2903F10803F8D11C4A04681768E8
:109900004368BC4223F00303234415D14C1C05EBF0
:10991000C105136000210B2C02DC55F8086F26B13D
:1099200001B1136000230360F0BD696821F00301F9
:109930000B4401340121EEE70D4A17689F42F1D133
:1099400005EBC10314600021B34202D053F8085D57
:109950001DB10029E6D01460E4E7596821F0030145
:10996000641A0121F0E700BFD4460120884B012092
:109970009C4B012010B5084C206858B1FFF7B0FF90
:10998000064B93F85010002262F3C301226083F863
:1099900050105A6210BD00BF50520120F422012025
:1099A0002DE9F0431A4B1B4CD3F800C0D4F800E06B
:1099B000AEEB0C0282420646994611DB82070FD1BC
:1099C000154F00290BBF01204FF0FF3000230B2360
:1099D000B84657F833207AB11D18EBB20B2BF8D9E3
:1099E000002007E0AEEB020247F83320226008EBCC
:1099F000C3035E60BDE8F08307EBC30026F00302FB
:109A00000029EFD1624447F833C0C9F80020EEE7DF
:109A10009C4B0120884B0120D4460120054B064A6F
:109A20001B681068834203D00021C01AFFF7B8BF3B
:109A3000002070479C4B0120884B0120064B186882
:109A4000082802D104331B6823B9A0F10D03584242
:109A500058417047012070473001001042DF7047C5
:109A600043DF704744DF7047024B1B68DB0700D5BC
:109A700000BE7047F0ED00E007B5FFF7FFFE48B10C
:109A800001A8FFF7EFFF0198003818BF012003B0CD
:109A90005DF804FB4FF08043D3F80C0400F0011094
:109AA000A0F1011358425841F1E700004209012397
:109AB00000F01F0003FA00F0014B43F8220070474A
:109AC00000E100E04309012200F01F0002FA00F06B
:109AD0002033024A42F82300704700BF00E100E053
:109AE0000028ACBF00F16040064B4FEA4111B4BF03
:109AF00000F00F0000F56140C9B2B4BF195480F8FE
:109B00000013704714ED00E00121420900F01F032B
:109B100001FA03F36032024941F82230FFF7C6BF71
:109B200000E100E003681F2B83BF03F01F03036005
:109B300001484FF0A04070470003005007B5019066
:109B400001A8FFF7EFFF019B03F5E073032240F844
:109B5000232003B05DF804FB07B5019001A8FFF7CF
:109B6000E1FF019B03F5E073022240F8232003B0DC
:109B70005DF804FB07B5019001A8FFF7D3FF019A38
:109B800001239340C0F8083503B05DF804FB07B526
:109B9000019001A8FFF7C6FF019A01239340C0F886
:109BA0000C3503B05DF804FB10B5014690F82000B9
:109BB000FF2805D08B7F1BB9CB7F5BB1FFF7E7FF99
:109BC000002308464B770B72BDE8104050F8083B65
:109BD00049681847FFF7CEFFF2E7000038B504796F
:109BE0001D4924236343CA180546127F92B3CB58FC
:109BF00023B1006840F30730FFF764FF2423634379
:109C0000CA18CB582D687BB1144BC5F80833537F65
:109C100053B101236B61D5F80431002BFBD0242311
:109C200003FB041300225A77242303FB041393F845
:109C30002100FF2801D0FFF78FFF0023C5F8003572
:109C4000074B9D4204BF01225A60242303FB0411E9
:109C500000230B7738BD00BFD04D01205201080012
:109C600000F002400023435082B043580193019B0F
:109C700002B070470B7B032B2DD8DFE803F02529BA
:109C80001D028A68154B9A4204D1D0F84C350A69F6
:109C90009A4209D18A6840F202239A421BD1D0F835
:109CA0004C354A699A4216D000230622C0F8003586
:109CB000C0F8002518467047D0F84C350A699A421A
:109CC000F2D1D0F83C35ECE7D0F84C350A69E9E739
:109CD000D0F83C35FAE70120704700BF00020400CD
:109CE0002DE9F8439846002380F82E30D36803F01E
:109CF0006043B3F1005F06460C46154603D0824F21
:109D00003846BDE8F883814BC1F8083390F82F300E
:109D100003F0FF0923B183687D4FC1F80433EFE7F7
:109D2000012380F82F30944600F10C07BCE80F00A7
:109D30000FC7DCF800303B6086F830906B78C4F8D1
:109D400088354FF482712046FFF78CFF4FF49271F3
:109D5000FFF788FFC4F85095C4F840952B78032B83
:109D600000F2B180DFE803F07A9C5E022B6903F019
:109D70006043B3F1005FC2D14FF48073C4F8003286
:109D80006B68EA68C4F844254FF4A871C4F84835F4
:109D9000FFF768FF4FF4B071FFF764FF4FF4A47151
:109DA000FFF760FF01232362A360D4F85031002B3A
:109DB000FBD04FF4A8712046FFF754FFAB682A6927
:109DC000C4F84425C4F84835524BB3604FF482734D
:109DD0000822514F297803291CBF0121A150326864
:109DE000002A75D1012223441968002974D0D4F8BF
:109DF000C434C4F8C434002286F82F20002B79D054
:109E0000464A474F13F0010F18BF174613F0020FD1
:109E100002F1010218BF174613F0040F414B18BF9F
:109E20001F466DE76B68EA68C4F84425C4F84835F6
:109E30002B6903F06042B2F1005F7FF460AFAA6863
:109E4000C4F834354FF48453C4F83825C4F80032CC
:109E500040F20223B36001232362B7E76B68EA682C
:109E6000C4F84425C4F84835B8F1000F0ED04FF4BB
:109E70008073C4F80032274BB3604FF4A471FFF72E
:109E8000F1FE4FF4A47301222262A1E74FF40073A4
:109E9000C4F8003240F20223B3604FF48273F2E759
:109EA0006B68EA68C4F83425C4F838354FF4805339
:109EB000C4F8003240F20223B3600123236200227F
:109EC0004FF4827385E7184F4FF48273082281E7BD
:109ED000B368C4F8043313E7D4F82411002983D0FD
:109EE0004FF492712046FFF7BDFE4FF48273226259
:109EF000626178E731462046FFF7BCFE084B002838
:109F000008BF1F46FCE600BF0A00AD0B02029C0121
:109F10000B00AD0B000204000000AD0B0000AE0B07
:109F20000100AD0B0200AE0B0400AD0BF0B5D0F894
:109F3000243187B004460D46ABB14FF49271FFF760
:109F400091FED0F8043173B9AB68C0F8083302232E
:109F5000AB60AB68C0F8043301230362436185F84A
:109F60002E3007B0F0BDD4F804316BB34FF48271DA
:109F7000204605F10C07FFF775FE0FCF01AE0FC6A7
:109F80003B68336095F82E303BB929462046FFF7F1
:109F900071FE80F0010085F82E004FF4B07120466C
:109FA000FFF760FE4FF4AE71FFF75CFE95F83030BE
:109FB00013B195F82E30CBB10023C4F80032AB605A
:109FC000224BC4F8083311E04FF4A4712046FFF788
:109FD00049FE2B7BEBB905F10C070FCF01AE0FC685
:109FE0003B68336095F83030002BE6D0D4F8C434A9
:109FF000C4F8C4349A071ED501238DF8003095F8B3
:10A0000030300BB985F82F30D5E9003168469847D4
:10A01000A7E74FF40073C4F8003240F20223AB60AC
:10A0200003F1CE73C4F80833AB68C4F804330123DA
:10A03000A360236295E713F0050F01D00223DCE74C
:10A0400095F82E30002BD8D00423D6E702029C01CD
:10A0500003790B490268342000FB031309490020EF
:10A060009860C2F80813D2F8001221F4BC51C2F86B
:10A070000012C2F80005012283F82D20704700BFAE
:10A08000304E012002029C0170B50679144D342334
:10A090007343EA18044692F82D20FAB1EB5823B125
:10A0A000006840F30730FFF70DFD2046FFF7D0FFB3
:10A0B000342303FB065393F832304BB92368D3F8AB
:10A0C0000805FFF749FD2368D3F80C05FFF744FDA9
:10A0D000342303FB0655002385F82D3070BD00BFE7
:10A0E000304E012001490248FFF720BF304E0120C9
:10A0F0000030004002494FF04020FFF717BF00BF7B
:10A10000644E01200023435082B043580193019BC9
:10A1100002B070471FB50123CDE901218DF8003051
:10A12000D0E900136846984705B05DF804FB0000CD
:10A130002DE9F0412F4E0579242303FB05630446E6
:10A1400093F82020002A52D05B6843B103682A4A62
:10A15000C3F80823006840F30730FFF7B3FC226818
:10A16000D2F8003223F02003C2F800322368012223
:10A170005A6020684FF4AC71FFF7C4FF2368DA60BF
:10A180002368D3F85821002AFBD00022C3F8002509
:10A1900023684FF0FF32D3F80C05D3F81485D3F8B9
:10A1A0000815D3F81075C3F80C25C3F814252368D7
:10A1B0009042C3F80825C3F8102501D0FFF7CCFC66
:10A1C000B8F1FF3F02D04046FFF7C6FC7A1C02D030
:10A1D0003846FFF7C1FC4B1C02D00846FFF7BCFC19
:10A1E000242303FB0565002385F820306B60BDE860
:10A1F000F08100BF984E01201003420007B5019086
:10A2000001A8FFF78FFC019B00EB8300D0F800371B
:10A2100023F4403343EA0141C0F8001703B05DF86E
:10A2200004FB07B5019001A8FFF77CFC019BD0F867
:10A230001005D84000F0010003B05DF804FB0000F9
:10A24000054B4FF0FF32072843F8202084BFC01889
:10A2500080F84C20704700BFE04E01200E4B0344B5
:10A2600093F92420072A02DD0021FFF7C7BFD3B2EC
:10A27000072B10D8930003F1804303F5C043D3F8B4
:10A28000101521F00101C3F81015012303FA02F2A1
:10A29000024BC3F808237047E04E012000600040E5
:10A2A00010B50E4A537903F0FF01A3B90C4B1960A6
:10A2B000116821B1012454710A4AC2F8044300F123
:10A2C000804000F524300122026011B91A68002A8A
:10A2D000FCD0054800E0054810BD00BF484F0120F4
:10A2E00000910240009002400000AD0B0B00AD0B4E
:10A2F000054A136833B1054B0020587110601A6885
:10A3000099681047704700BF00910240484F0120F4
:10A310006DDF704772DF704773DF704774DF70471F
:10A3200075DF704778DF70477ADF70477BDF7047F3
:10A330007CDF70477DDF70478ADF70478BDF7047B7
:10A340008CDF70478FDF704790DF7047A5DF704765
:10A3500060DF704769DF704767DF704710DF704765
:10A3600011DF70470388102B03D01B2B03D0002074
:10A37000704783880B8001208870704721290DD099
:10A3800005D811290AD0122908D039B170473129CE
:10A3900004D0412902D0222900D0704701707047B3
:10A3A000A3DF7047ABDF7047ADDF7047AEDF7047AC
:10A3B00070B5EFF3108672B60D4A94680123A4B904
:10A3C00093600C4B0C4DD3F8801029401160C3F8FA
:10A3D0008050D3F8841051604FF0FF32C3F88420CE
:10A3E000047006B962B6002070BD0370F9E700BFC3
:10A3F000D051012000E100E0FC06FFBDC3880289C6
:10A400009A420BD05A1C92B20168C280CB5C818800
:10A4100091429CBF0022C280184670474FF0FF3027
:10A42000704710B502898488531C9C4298BF002352
:10A43000C4889C421DBF0468A15403814FF0FF30C3
:10A4400018BF002010BDC288038982B09B1A0193F7
:10A45000019B002BBFBF019A83889B180193019831
:10A4600080B202B07047000010B5084B9A685AB12C
:10A4700050B9EFF3108172B6054A1C6814605C682D
:10A480005460986001B962B6002010BDD05101201F
:10A4900000E100E0F7B504460DF107000F4616464F
:10A4A000FFF786FF00250C34AE4205D89DF8070063
:10A4B000FFF7DAFF03B0F0BD795D2046FFF7B1FF8B
:10A4C0000135F1E7034610B51A88392A08460DD040
:10A4D000502A1AD14A68D988928A914204D11A8A9C
:10A4E00003F11201FFF7D6FF01200FE01C7B012CC6
:10A4F000FAD14A685989928A914204D1DA8903F1E2
:10A500001001FFF7C7FF204600E0002010BD00004B
:10A510004368014613B10248FEF7BEBF704700BF53
:10A52000C5A4020076DF70477EDF70477FDF70478B
:10A5300086DF70479BDF70479DDF70479EDF704767
:10A54000B5DF7047406878B1406868B1837953B12E
:10A55000C06848B1406838B100884FF6FF73C01A30
:10A5600018BF012070470120704718B143680BB134
:10A57000188870474FF6FF707047A4DF704770B5BA
:10A5800005460C468E18B44200D170BD217828468D
:10A59000FFF747FF002806DA2846FFF72FFF21784C
:10A5A0002846FFF73EFF0134EDE770B506460C463E
:10A5B0008D18AC4200D170BD3046FFF71FFF04F884
:10A5C000010BF6E7F0B5838B002187B0044680F8D5
:10A5D0002310002B3CD0626894F82250978A94F89C
:10A5E0002020C08B94F821600432F5B104EB820284
:10A5F000CDF8091052688DF80D1002A98DF8086089
:10A60000ADF80A70ADF80E300492FFF7C9FE50B9EC
:10A6100094F82030A083013303F0010384F8203044
:10A62000012384F8233007B0F0BD04EB8202ADF8BB
:10A6300006300DF10603049302A95368ADF80870C3
:10A640008DF80A60ADF80C500593FFF7AFFEDEE71A
:10A650001846E8E7F0B585B08389ADF806200232E8
:10A660009A4205460E4620D80DF10D00FFF7A0FED8
:10A6700005F108042046A989FFF7E5FEBDF806307C
:10A68000081A023398424FF0020210DB0DF1060166
:10A690002046FFF774FF20469DF806203146FFF75D
:10A6A0006EFF9DF80D00FFF7DFFE05B0F0BD0DF168
:10A6B0000E012046FFF779FF0027BDF80E20BBB240
:10A6C0009A42D7D92046FFF799FE0137F5E738B50A
:10A6D0000446CD8BA3889D42084606D12388392B9A
:10A6E00005D023F00403382B15D0002005E04B687B
:10A6F00062899B8A9A4201D0012038BDE28904F127
:10A700001001FFF7A7FF237B022BF5D161892846B3
:10A71000FFF733FFF0E7FFF755FFEDE738B50346E6
:10A72000084619889A88502905D0572929D0112917
:10A7300021D0002038BD4468D988A58A8D420FD128
:10A74000C18B4FF6FF74A14207D1C2831A8A03F16D
:10A750001201FFF77FFF0120ECE79142E9D1F5E715
:10A76000648C8C42F7D15B8ADB0756BF4FF6FF73D0
:10A77000C283C383EFE7C38B934204BF4FF6FF73DB
:10A78000C383FFF71FFFD4E7A8DF7047AADF704736
:10A7900062DF704764DF7047A1DF7047ACDF70474E
:10A7A000012070471020704790F8203033B982683C
:10A7B000D2F8041111B18377C2F80431807F704759
:10A7C0000C4B984211D00AD8A3F57F43F73B98422F
:10A7D0000DD0013398420CBF102000207047064B6B
:10A7E00098420CBF052000207047132070470520B9
:10A7F000704700BF0100AE0B0200AE0BFF280CD06B
:10A800004109064A012300F01F0003FA00F052F844
:10A81000213023EA000342F821307047EC4901203F
:10A8200010B54368044643B11879FFF795F963689A
:10A830001879FFF7E3FF0023636010BD70B50E4B7E
:10A840000122002604465A60C3F80065FF2590F8EF
:10A850002100FFF7D3FF94F8220084F82150FFF77E
:10A86000CDFF94F8230084F82250FFF7C7FF034B75
:10A8700084F823501E6070BD005002408C4B0120B4
:10A8800010B5837AFF2B04460ED04068FFF7FCFB1F
:10A89000A07AFFF7B3FF607AFFF7B0FFFF23A37240
:10A8A0006372636800221A7210BD10B5437AFF2BE1
:10A8B00004460DD04068FFF791F9607AFFF79EFFDC
:10A8C000A07AFFF79BFFE07ABDE81040FFF796BF44
:10A8D00010BD00004109064A012300F01F0003FAE1
:10A8E00000F052F82130184342F82100704700BFB1
:10A8F000B85101200079FFF7EDBF00000379064948
:10A90000580903F01F020123934051F820201343FC
:10A9100041F82030704700BFEC4901204CDF704700
:10A9200020B1034B800143F001031847704700BF7B
:10A930002002070010B5094C2046FEF779FD237868
:10A9400023B1BDE810400648FFF732BD72B6BFF331
:10A950005F8F044A13680133136010BD3E5201201B
:10A96000904B0120B051012030DF704731DF70473C
:10A97000184B53F820300022022110B5C3F80025EF
:10A98000C3F80425C3F810154FF4FA41C3F8142591
:10A99000C3F80C25C3F808150F4901EBC004C3F830
:10A9A00020450424C3F82445C3F82825C3F82C25E2
:10A9B000C3F84025C3F84425C3F84825C3F84C25FF
:10A9C0004FF4004321F8303001EBC0004380838016
:10A9D000C38010BD78640700F451012001F5AC710B
:10A9E0004FF0FF3340F82130002303F5AC7250F8EC
:10A9F0002220013205D10133042BF6D10023C0F807
:10AA00000035704710B5436804467BB1007AFFF704
:10AA1000A3F8617A60680023636001F07F01FFF7AB
:10AA2000DDFF207AFFF7EAFEFF23237210BD30B569
:10AA300043684181D3F82055447AD3F8082504F0BF
:10AA40007F0451434FF6FF73B1FBF3F36FEA4343C7
:10AA50006FEA534325F81430436801229A6030BDF1
:10AA60002DE9F84F002516469DF828B004460F46FC
:10AA70002A469A46002B7CD04949A946012347F62D
:10AA8000FB70B1FBF3F8B8FBFAF8A8F1040C8445AD
:10AA900068D8DFF814C100215CF8040BD0F8003549
:10AAA00013F00F036FD0BBF1000F67D1D0F808355A
:10AAB000984563D1D0F80C354B455FD15B4603F523
:10AAC000AC7E50F82EE0BEF1FF3F54D15AB20125C2
:10AAD0006060002861D0637A62F3060363723B7999
:10AAE00023723846FFF70AFF637A207AC4F80CA075
:10AAF0006BF3C7136372FFF721F863680022C3F892
:10AB00000025DDB96368274A93420CD002F5A042C4
:10AB100093423BD002F58052934239D002F5304245
:10AB2000934237D10325E8B2FFF722FF6368002282
:10AB3000C3F80C95C3F80425C3F80885637A6268E6
:10AB4000397903F07F0303F5AC73204642F82310F4
:10AB500063680122C3F800253146FFF768FF002033
:10AB6000BDE8F88F09F10109B9F1080F4FEA430375
:10AB700087D10220F4E70133042BA0D1013104294D
:10AB80008AD10020A4E71A461D46A1E70125CAE79D
:10AB90000225C8E74FF0FF35C5E70420E0E700BF16
:10ABA0000024F40000C001407864070003685B687B
:10ABB0004FF0FF32C3F860250368187AFEF7E7BF4D
:10ABC00010B5174B53F82020FAB11079FFF729FB85
:10ABD000C1B250794C00FFF724FBE4B241409379B5
:10ABE00054FA81F1C9B2CB1A03F00303012B0DD142
:10ABF000D3790133D37192F907309171032B0ADDB8
:10AC00009368013393600023D37110BD032BF2D1FD
:10AC1000D379013BEEE70333F7DA9368013BF1E7C1
:10AC2000CC440120052801BF024A136803F5001334
:10AC300013607047385201201FB5134BD3F8040539
:10AC4000124B1B6801A903EBD000FEF739FD9DF8FC
:10AC500007309DF806001B0443EA40539DF80800A6
:10AC600043EAC0239DF8090043EA40139DF80A0017
:10AC700043EA5003BDF80400A0F2BC7043EA406010
:10AC800005B05DF804FB00BF0040024038520120CF
:10AC9000807D400040F00100704700008068024B5A
:10ACA000002808BF184670477C29070008B5FFF741
:10ACB0002FFC014808BD00BF7C29070043683BB159
:10ACC00093F85A200348044B022A08BF18467047DD
:10ACD0000048704774290700802907008068024BEC
:10ACE000002808BF184670477C2907004068704755
:10ACF00008B54368014613B10248FEF7CDFB024890
:10AD000008BD00BFCFA602007C2907008079034A56
:10AD1000034B002814BF10461846704780290700CF
:10AD200074290700C079034A034B002814BF10465A
:10AD30001846704780290700742907008068024B75
:10AD4000002808BF184670477C290700C30747BF83
:10AD5000401007EE900A00F1FF4020F003034CBFC3
:10AD6000F8EEE77A07EE903A9FED337AF4EEC77A81
:10AD7000F1EE10FA82B00EDDDFED306A67EEA66A02
:10AD8000FCEEE66A16EE903A1B0206EE903AF8EEFA
:10AD9000666A77EEE67ADFED2A5AF4EEE57AF1EEAE
:10ADA00010FAF0EE086A13D567EEA67A37EE677AE6
:10ADB000FCEEE77ABCEEC77A8DED017A9DF804309F
:10ADC000CDED017A9DF80400000440EA03201AE06A
:10ADD0009FED1C6AF4EEC67AF1EE10FA18D577EE04
:10ADE000E57A67EEA67A37EE677AFCEEE77ABCEE94
:10ADF000C77A8DED017A9DF80430CDED017A9DF88A
:10AE0000040040EA0340400040F0010002B07047F7
:10AE100077EEC67A67EEA67AFCEEE76A77EE677A97
:10AE2000CDED016AFCEEE77A9DF80430CDED017AB4
:10AE30009DF80400C9E700BF00007F430000803B8D
:10AE40000000AA4200002A4308B5FFF7E9FC0148C8
:10AE500008BD00BF7C29070008B50868FFF7E0FCC3
:10AE6000004808BD7C29070008B5086890F8233021
:10AE7000FF2B01D0FFF7E2FC004808BD7C2907004A
:10AE800038B5084B0C681B680025C3F800552079BD
:10AE9000FFF7B4FC60792571FFF7B0FC65710248DB
:10AEA00038BD00BF442201207C29070008B5FFF708
:10AEB000E7FC014808BD00BF7C29070008B5086809
:10AEC000FFF7DEFC004808BD7C29070008B5FFF746
:10AED000ECFC014808BD00BF7C29070008B50868E4
:10AEE000FFF7E3FC004808BD7C290700064BD3F8B8
:10AEF000B83093F8250093F824204000D2B283F8AC
:10AF0000252040F001007047804F0120F0B5134D1F
:10AF10003524013C14F0FF0411D1114D3124013CC2
:10AF200014F0FF0419D02E466F68B84205F10805E9
:10AF3000F5D140F2CA20086040F2063109E02E4601
:10AF40006F68874205F10805E3D10020086040F2F0
:10AF5000A31111603268D2081A60F0BD70F60600C5
:10AF60007822070008B5FFF7E5FC014808BD00BFDF
:10AF70007C29070000487047F85B070008B508689F
:10AF8000FFF740FD004808BD7C29070008B5FFF722
:10AF900039FD014808BD00BF7C290700102070471B
:10AFA00001207047FA2070470B46910702D50269CD
:10AFB000120605D5083007C883E80700002070474F
:10AFC0000120704710B50446FFF798FC2046BDE805
:10AFD0001040FFF78FBC0000024BC3F8B4000248DA
:10AFE000704700BF804F01207C290700024B0348B7
:10AFF00000221A70704700BF384701207C290700E3
:10B0000080687047C06870470079034A034B002886
:10B0100014BF10461846704780290700742907009E
:10B020004079034A034B002814BF10461846704766
:10B030008029070074290700F7B587689DF820600C
:10B040009DF82440042F04D1857C15B1E40844F018
:10B05000E004456A79435DB1042F08BF077C0D44C5
:10B0600008BFEC55477BEA55877BEB55C77BEE5510
:10B07000056A29448568042D11D1857C6DB907EED8
:10B08000904A90ED067AF8EEE77A67EE877AFCEE62
:10B09000E77ACDED017A9DF80440057C4C5507EE2A
:10B0A000902A90ED067A447BF8EEE77A67EE877A8D
:10B0B000FCEEE77A17EE902A07EE903A0A55F8EE82
:10B0C000E77A90ED067A827B67EE877AFCEEE77A84
:10B0D00017EE903A07EE906A8B54F8EEE77A90ED0F
:10B0E000067AC27B67EE877AFCEEE77A17EE903A33
:10B0F0008B5403B0F0BD000000234360004870474C
:10B100007C29070000697047007B7047807B70478F
:10B11000704730B5039C85682560446849B1857BDC
:10B12000B2FBF5F105FB1122017BD2B2C90802FB8B
:10B1300001441C60002030BD10B501241470427B16
:10B140001A70029B82681A6001B1847B039B1C7099
:10B1500010BD000000234360C3600148704700BF7A
:10B160007C290700806A7047807E704790F8240031
:10B17000704710B500241470827E082A94BF002204
:10B1800001221A70029B4FF400721A6021B190F8EC
:10B190002430039A137010BD0123FAE70023C0E99D
:10B1A00001330148704700BF7C29070040697047A0
:10B1B000C07C7047007C704710B500241470827CFE
:10B1C0001A70029BC2681A6019B1C37C039A13708B
:10B1D00010BD0123FAE7008B07EE900AFBEEE87A38
:10B1E00017EE900A20F0030040F00200A0F1FF40AB
:10B1F000704700008068034A034B002814BF1046C4
:10B20000184670478029070074290700406A704774
:10B2100090F82D00704710B50024147001221A70A8
:10B22000029B046A1C6009B190F82D20039B1A70E0
:10B2300010BD30B5838899422CDA00292ADBC388F7
:10B240009A4227DA002A25DB838984685A43837B64
:10B25000DD080FD1C57B41FA05F52A440569008C4C
:10B26000294001FB0333C3F1200154F82230CB40C5
:10B27000184030BD012D04EB820201D1505CF8E78B
:10B28000022D02D132F81100F3E7042D02D152F859
:10B290002100EEE70020ECE7C1EB0141084480EA21
:10B2A00050310C4B9FED0C7A01FB01F04EF64D42F4
:10B2B00002FB0030094B01FB003020F0004307EE99
:10B2C000903AFAEEE07A67EE877AFCEEE77A17EECC
:10B2D000900A70471F07310100007F430DDD0852BF
:10B2E000020C13235343C2B2FF213632B3FBF1F3F6
:10B2F000B2FBF1F2C0F307201344B6225043B0FB77
:10B30000F1F01844C0B27047C2B2030C9342194620
:10B3100010B538BF1146C0F30724A14238BF2146FB
:10B320009342184628BF1046A04294BF081A081B33
:10B3300010F0FF0010D0C9B28B420ED1A21AF02338
:10B340002824624392FBF0F292FBF3F003FB1020FF
:10B35000002800DAF030C0B210BD8C4207D1D21AFA
:10B3600002EB40022823534393FBF0F0F0E78A42BC
:10B3700003D11A1B02EB8002F4E70020EBE7000088
:10B380000079034A034B002814BF10461846704743
:10B39000802907007429070043681A7A12B901202E
:10B3A0001872704700207047C088400040F00100CC
:10B3B00070478088400040F001007047042806D0A4
:10B3C000052806D18868400040F001007047024817
:10B3D00070470020704700BF8029070090F9503067
:10B3E000816A30B5002BB4BFB0F91240B0F91040FB
:10B3F000B0F90C30858923449CB28B7BC3B191F9A1
:10B4000005204B8812FB05F21A4412B2A0F8462020
:10B4100091F90530498813FB04F30B441BB29A429F
:10B42000D2BFA0F84A30A0F84A20A0F8463030BD7C
:10B4300091F904200B8812FB05F21A4412B2A0F80D
:10B44000442091F90430098813FB04F30B441BB228
:10B450009A42D2BFA0F84830A0F84820A0F8443063
:10B46000E5E790F95030816A30B5002BB4BFB0F9F0
:10B470001040B0F91240B0F90E30C58923449CB297
:10B480008B7BC3B191F904200B8812FB05F21A449F
:10B4900012B2A0F8442091F90430098813FB04F398
:10B4A0000B441BB29A42D2BFA0F84830A0F8482003
:10B4B000A0F8443030BD91F905204B8812FB05F20D
:10B4C0001A4412B2A0F8462091F90530498813FBBE
:10B4D00004F30B441BB29A42D2BFA0F84A30A0F842
:10B4E0004A20A0F84630E5E72DE9F04190F82E30EB
:10B4F0009A07044622D4BDE8F081636853F835000A
:10B50000830710D10368B34212D190F85030C0F8CD
:10B51000288023F0140343F0140380F85030FFF721
:10B520005DFFFFF79EFF0135638D9D42E5D3E2E7A6
:10B53000BB42F8D1414600F00BF8F4E7024E034F4E
:10B54000002500F10808EFE7680F0700440B07002B
:10B550000A1E90F82E3018BF012262F3410380F8D2
:10B560002E309B0730B428D58C7BB0F92420B0F95D
:10B57000263014B114461A4623460C8891F904501B
:10B5800005FB024202814A8891F9054004FB03232E
:10B5900043810B7990F8282013FB02F303734B7956
:10B5A00013FB02F343738B7B83750B7B03754B7B20
:10B5B00043758B7913FB02F3837330BCFFF794BFA1
:10B5C000B1F90030B0F900209A42C8BF0380B1F948
:10B5D0000230B0F902209A42C8BF4380B1F904306A
:10B5E000B0F904209A42B8BF8380B1F90630B0F9AF
:10B5F00006209A42B8BFC380704710B5B0F900303A
:10B600001380B1F90040A342B8BF23461380B0F9BC
:10B6100004309380B1F90440A342A8BF2346B2F995
:10B62000004093809C4218DAB0F902305380B1F99F
:10B630000240A342B8BF23465380B0F90600D08031
:10B64000B1F906309842A8BF1846B2F90230D0804E
:10B650008342ACBF0020012010BD0020FCE702881F
:10B6600083889B1AC2884088101A9BB280B25843C4
:10B6700070474FF4B473F0B591FBF3F505FB13116C
:10B6800000250123B0F84220066CB0F84040A0F835
:10B690004410456280F82A30058680F8325021B186
:10B6A000B42920D140F201130386002390F832C060
:10B6B0004363C36340F20113038590F8301090F8A0
:10B6C000313025B217B2BCF1000F16D0078745877D
:10B6D00019B18284FF2280F828201BB1C484FF2383
:10B6E00080F82930F0BDB1F5877F80F832300CBF8B
:10B6F00080F8313080F83030D7E7866319B1FF2108
:10B70000848480F82810002BECD0C284E7E7000086
:10B7100038B5054643680C4619BB174A92F82E10F7
:10B72000C1F3400089071BD5934222D138BD33B104
:10B7300093F82E206FF3410283F82E2054B105F1C7
:10B7400024012046FFF704FF94F82E3043F0020353
:10B7500084F82E3001236C6085F858300120E5E72D
:10B7600014469C42FAD094F82E209207DFD5002090
:10B77000DCE7002BDCD1D9E78C210120836900684C
:10B780001847036A006818472DE9F04F8DB004464A
:10B790000593BDF858300693199B07925A88029278
:10B7A00090F84A20B3F800A0B3F80490DB889DF825
:10B7B0005C809DF860600393072A0D460ED808232D
:10B7C000B3FBF2F290F84B30534390F85020002A2C
:10B7D00000F0B780BAFBF3FAB9FBF3F92046FFF7A4
:10B7E000CDFF002E08BF46468DF828500125B8F140
:10B7F000000F40F0AF800095E76920680AAB424631
:10B800004146B847AB464546AA1C0492B4F84620C8
:10B81000B4F95430FF2A00F2A080DAB25AFA83FA5F
:10B820000CAB2B4403F808AC531E99446A1C0CABB8
:10B83000134403F8089C05F102090AAB2068E76984
:10B84000CDF8009032465946B8472046FFF799FF99
:10B85000059BB3F5807F1BD04FF0010A20468DF881
:10B860002730FFF78BFF2068E769CDF800A00DF1C6
:10B87000270332460021B847C9F3470320680093E5
:10B88000E7690AAB32465146B8472046FFF779FFD1
:10B890002046FFF773FF079B8DF82830B8F1000FA3
:10B8A00007D1012300932068E7690AAB424641466D
:10B8B000B847B4F84820B4F95630FF2A0CAA0CA9AE
:10B8C00002EB050005F101020A44114663D8029D0E
:10B8D000DAB255FA83F300F8083C531E039A134476
:10B8E00001F8083C049B2068009332460AAB594695
:10B8F000E569A8472046FFF744FF069BB3F5807F24
:10B900001CD04FF0010820468DF82730FFF736FF96
:10B91000E5692068CDF800800DF12703324600214B
:10B92000A847049B2068E569C3F3470300933246A8
:10B930000AAB4146A8472046FFF723FF0DB0BDE8FC
:10B94000F08F029AB2FBF3F20292039AB2FBF3F386
:10B95000039343E74FF0000B56E79AB21AFA83FAC3
:10B96000531E0CAA2A44CAF3072102F8081C691CBA
:10B970000CAA0A44A81C02F808AC0CAA4B440244C6
:10B98000C3F3072102F8081C0CAA2A4405F1040994
:10B9900002F8053C51E7029F9AB217FA83F3C3F30A
:10B9A000072C039F00F808CC013A01F8083CA91CB9
:10B9B0000CAB0B441744C7F3072103F8081C2B1DDD
:10B9C00004930CAB1D4405F8057C8BE738B50546A0
:10B9D00034301446FFF711FE10B395F84A20072AB9
:10B9E0001ED80823B3FBF2F395F84B2095F850507E
:10B9F00013FB02F3DBB2A5B1B4F9002092FBF3F123
:10BA000003FB112109B1521A2280B4F9042092FBE0
:10BA1000F3F103FB112119B113445B1AA3802846EB
:10BA200038BDB4F9022092FBF3F103FB112109B1F7
:10BA3000521A6280B4F9062092FBF3F103FB112144
:10BA40000029EDD013445B1AE380E9E740687047B2
:10BA5000A1F120035E2B2DE9F0410E4602D8D8B2A9
:10BA6000BDE8F081C568078A4FF000082F44BD4249
:10BA70005FFA88F401D3FF20F2E72846FBF7D2FEF5
:10BA800001462846FBF7EBFE8E42054608F1010809
:10BA9000EDD104F15F00C0B2E2E70000064A0023E6
:10BAA00052F83310884203D102EBC300FDF718BFF0
:10BAB00001330C2BF4D17047D446012010B5044655
:10BAC0000078FF2801D0FEF799FEFF23237010BDF8
:10BAD00090F8B33090F8B4000322B3FBF2F303FA0A
:10BAE00000F070470268034610783E2805D83B28CE
:10BAF00005D8212806D0402070474028FBD10132CC
:10BB00001A6070473E20FAE710B50C68606818B1FB
:10BB1000FEF786FE00236360004810BD7C29070005
:10BB200010EE102A6F4822F00043834282B04FEAA1
:10BB3000D27111D9B3F1FF4F79D8002940F0CF80ED
:10BB4000DFED697AB4EEE70AF1EE10FA47DDDFEDDA
:10BB5000677A20EE270A6AE0654883425CD9654A25
:10BB600093423CD89FED647A91BB30EE477ADFED8B
:10BB7000637A012337EE670A37EE407A37EE677A49
:10BB8000B6EE005A60EE054A9FED5D6ADFED5D6A34
:10BB900060EE247AE7EE866AB7EE006AF0EE465A67
:10BBA000E6EEA75AF0EE656AF0EE085AE4EEE65AC1
:10BBB000F1EE084AE0EE654A76EEE56AC6EEA45A72
:10BBC00065EEA75ABBBBD0EE257A30EE670A2EE0B1
:10BBD00030EE077ADFED4C7A4FF0FF33CAE7B6EE6E
:10BBE000007A0029FEEE007A08BFF0EE477A9FED5A
:10BBF000477ADFED426A40EE077A9FED3F7AFDEE2D
:10BC0000E77A17EE903AF8EEE77AA7EEC70A67EE02
:10BC1000A67AB0EE407AADE7B3F14C5F09D212F0EC
:10BC2000FF4F04D160EE007ACDED017A019B02B0A6
:10BC300070470023A4E775EEC75A5A1C90EE257A88
:10BC400077EE677A06D170EE676ABEEE000AA6EE5E
:10BC5000850AECE7012B16D1BDEE007AB4EEC70AD7
:10BC6000F1EE10FA06D530EE050A37EEC00AF8EE0E
:10BC7000007A6EE730EE670AF0EE007AA0EE276AEF
:10BC8000B0EE460AD3E703F17F02D205382B06EE69
:10BC9000902A10D930EE670A802B70EE067A05BF25
:10BCA0009FED120A77EEA77A26EEA70A27EE800A02
:10BCB00030EE460ABBE7C3F17F02D20507EE102A39
:10BCC000162BCDBF37EE877A30EE670A36EE476A1D
:10BCD00030EE470A30EE060A20EE260AA7E7BFEE4E
:10BCE000000AA4E743B895418071B1420000007F8B
:10BCF0001872B13E9115853F8071313FD1F71737EA
:10BD00001030CF3A688808BDD1F717B73BAAB83FC3
:10BD100010EE103AA3F50002B2F1FF4F59D35A00CA
:10BD200006D160EE007ABFEE007A87EE270A7047F0
:10BD3000002B04DA30EE407ADFED2B7AF5E7DFED09
:10BD40002B7A60EE277A6FF0180117EE903A284AA6
:10BD50009FED285A9FED284A1A44D30D7F3B0B4490
:10BD600006EE903A254BC2F31602134407EE903AC2
:10BD7000B7EE000A77EEC07AB0EE007A37EE877A37
:10BD8000F8EEE66AC7EE875A9FED1D7A9FED1D0A11
:10BD900065EEA54A26EE800A24EEA46AA6EE075AAE
:10BDA0009FED197AA6EE047A27EE247AA5EE067A9C
:10BDB000B6EE006A27EE866AA6EE277AA7EE250A77
:10BDC000A6EE670A30EE270ADFED107AA6EEA70A84
:10BDD0007047B3F1FF4F06D2B3F17E5F01D000216F
:10BDE000B5E79FED010A7047000000000000004C1D
:10BDF0000DFB4A0013CECC3EEEE9913EF304353FF5
:10BE0000269E783ED1F71737AAAA2A3F8071313F84
:10BE100008B5FFF77DFFDFED027A80EE270A08BD47
:10BE20008E5D134008B5FFF773FFDFED027A80EEF9
:10BE3000270A08BD1872313F10EE103AC3F3C752FB
:10BE4000A2F17F01162982B013DC002913DB124A0C
:10BE50000A411A420DD0DFED117A30EE270A002B8D
:10BE60008DED000AA8BF9B18009923EA020300EE9B
:10BE7000103A02B07047DFED097A30EE270A002B46
:10BE80008DED010A019A04DB5A0018BF4FF07E5372
:10BE9000EDE74FF00043EAE7FFFF7F000000807B03
:10BEA00010EE103AC3F3C752A2F17F01162982B0F7
:10BEB00013DC002913DB124A0A411A420DD0DFEDD0
:10BEC000117A30EE270A002B8DED000AB8BF9B18BF
:10BED000009923EA020300EE103A02B07047DFED4A
:10BEE000097A30EE270A002B8DED010A019A04DA57
:10BEF0005A00054A18BF1346EDE70023EBE700BFE1
:10BF0000FFFF7F000000807B000080BF10EE103A32
:10BF100023F00042B2F1FF4F70B502D3A0EE000A49
:10BF200070BD002AFCD0002B04DA70EE407A87EE58
:10BF3000A70AF5E713F0FF424FEAE35129D0C3F314
:10BF4000160242F40002CB07A1F17F0058BF520055
:10BF500000234010520019241E464FF080717518BE
:10BF60009542DEBF6E18521B5B18013C4FEA42023D
:10BF70004FEA5101F3D112B1013323F001035B10F9
:10BF800003F17C5303EBC05300EE103AC8E75B00AB
:10BF900001321802FBD5013A891AD0E710EE103AA7
:10BFA00023F00043B3F1485F04DAFDEEC07A17EEE8
:10BFB000903A5BB320EE007ADFED157A9FED156ABB
:10BFC000A7EE276ADFED147AE6EE077A9FED136A93
:10BFD000A7EE876ADFED127A60EE076AE6EE077A6F
:10BFE00030B99FED106AA7EE276AA6EE260A7047C1
:10BFF00067EEE67AB6EE006AE0EE867AD7EE870A5A
:10C00000DFED097AE6EEA70A30EE600A704700BF5E
:10C01000D3C92E2F342FD7B21BEF3836010D50B9AC
:10C020008988083CABAA2ABEABAA2A3E10EE103A79
:10C0300023F00043B3F1485FB7EE006A05DAFDEE86
:10C04000C07A17EE902A002A3DD060EE005ADFED4C
:10C050001F7A9FED1F7ADFED1F6A1F4AA5EEA77AB0
:10C060009342DFED1E7AE7EE257A9FED1D7AA7EE6B
:10C07000A57ADFED1C7AE7EE257AB0EE667AA7EEB8
:10C08000A57AF6EE006A65EEA67A67EE256A20EEDE
:10C09000C07AA5EEA67A04DC37EEC77A36EE470AF8
:10C0A0007047114A9342DABF03F17F4306EE903A9C
:10C0B000F5EE026A77EEE67A36EE660A77EEC77A32
:10C0C00030EE670A7047B0EE460A70474ED747AD6C
:10C0D000F6740F31ABAA2A3D9999993E7CF293B43C
:10C0E000010DD037610BB6BA0000483F10EE103A90
:10C0F00023F00042B2F1465F16DAFDEEC07A17EE89
:10C10000901A39BB431C134306D1F0EEC07AB7EE48
:10C11000007A87EE270A7047012800F0A080FFEE22
:10C12000007A87EE800A70474D498A4212DBDFEDC4
:10C130004D7A002BB8BFB1EE400A37EEC00ADFEDF2
:10C140004A7AB8BFF1EE600A77EEE00A30EE800A74
:10C15000DFED460A9FED466ADFED466ADFED465A9F
:10C160003F4920EE007A8A4267EE077AE7EE866A58
:10C170009FED426AA6EEA76ADFED416AE6EE276A06
:10C180009FED406AA6EEA76ADFED3F6AE6EE276AFA
:10C190009FED3E6AA7EEA56ADFED3D5AE6EE275A0F
:10C1A0009FED3C6AA5EEA76ADFED3B5AE6EE275A03
:10C1B0009FED3A6AA5EEA76AF0EE467AE7EE876A47
:10C1C00020EE076AF0EE667AF0EE606AE7EE866AC5
:10C1D000DFED337AE6EE870AE6EE270A30EE207AC4
:10C1E0001DDB07EE900AF8EEE77A27EE076A37EED6
:10C1F000277A9B17C6EE076A03F00203C3F1010317
:10C20000B0EE007A76EEE00A70EE600A00EE103AC8
:10C21000E0EEC77AB8EEC00A20EE270A7047012880
:10C220001BD0FFEE007AC7EE876A1E4B17EE102A6E
:10C230001A4006EE102A16EE902A36EE400A1340F7
:10C2400070EEC00A00EE103AF7EE007AE6EE007AE1
:10C25000E0EE807AA7EEA60A7047B0EE470A704774
:10C2600040A12C3FDA0F493F682122330000000033
:10C270005FAE9BB745F4A3388453D937C8261A3A22
:10C2800016696B3BA427B33C8988083E7AC0953871
:10C29000B937813948DEBE3A1F37113CD10D5D3DBB
:10C2A000ABAAAA3E00F0FFFFDFED0A7A9FED0A7A03
:10C2B000DFED0A6AA0EE277ADFED097AE7EE007A71
:10C2C000B7EE007AA0EE267A67EE807A87EE870ACC
:10C2D000704700BF6BD30DBCBA132FBDAEE534BFA2
:10C2E00075AA2A3E10EE102A08B522F00043B3F1D9
:10C2F0007E5FB0EE406A12D319BF76EE467A9FEDAC
:10C300001F7ADFED1F7A9FED1F7A12BF87EE276A33
:10C31000E0EE077AB0EE676AB0EE460A08BDB3F108
:10C320007C5F0BD2A3F50003B3F1645FF4D320EE7E
:10C33000000AFFF7B9FFA6EE006AEDE7B0EEC06AAB
:10C34000B7EE000A30EE466AB6EE000A26EE000AA4
:10C35000B1EEC06AFFF7A8FF002AF0EE007AA0EE67
:10C36000066A9FED090AA6EE270A9FED066A36EED9
:10C37000406AB8BFB1EE466ACEE700BF00000000D9
:10C3800000008003DA0FC93F6821A2B308B510EEA0
:10C39000103A23F00042B2F17E5FF0EE405A10D323
:10C3A00008D19FED300A9FED306A002BA8BFB0EE98
:10C3B000460A08BD70EE405ADFED2B7A87EEA50ADB
:10C3C000F7E7B2F17C5F11D2B2F14A5F9FED276AC5
:10C3D00044D920EE000AFFF767FFDFED257AE0EE93
:10C3E000657A35EEE70A36EE400AE2E7002BB7EE53
:10C3F000000AF6EE007A14DA35EE800A20EE270AFB
:10C40000F1EEC05AFFF750FF9FED1A6AA0EE256AC1
:10C410009FED160A75EE865A30EE650A30EE000A78
:10C42000C7E730EE650A20EE270AB1EEC05AB0EE3B
:10C43000407A15EE103A23F47F6323F00F0306EEE3
:10C44000103AA6EE467A75EE067AC7EE275AFFF73F
:10C450002BFFE0EE055A36EE250ADFE7B0EE460A7E
:10C46000A7E700BFDA0F494000000000DA0FC93F1C
:10C470006821A2336821A2B310EE102A22F00043F3
:10C48000B3F1994F82B04FEAD2700ED3B4EE400AA6
:10C49000F1EE10FA07D69FED410ADFED417A002850
:10C4A00008BFB0EE670A02B070473E498B420BD816
:10C4B000B3F1665F5AD212F0FF4FF4D160EE007A0A
:10C4C000CDED017A019BEEE7374A9342F0EEC07A58
:10C4D00037D8A2F5D002934229D8F0EE006ABFEE19
:10C4E000007AA7EEA67A002377EEA67A87EE270ACF
:10C4F0005A1C60EE006A9FED2D6ADFED2D7ADFEDAC
:10C500002D5A26EEA67AE7EE067A9FED2B6AA7EE65
:10C51000876ADFED2A7AE7EE257A67EE877AE6EE1C
:10C52000267A60EE277A24D130EE670ABBE7B7EEB1
:10C53000007A77EEC76A77EE877A012386EEA70A3C
:10C54000D6E71F4A93420BD8F7EE086AB7EE007A97
:10C55000A7EEA67A022337EEE66A86EE070AC7E759
:10C56000BFEE007A87EE270A0323C1E74FF0FF33BF
:10C57000BEE7144A144902EB830201EB830393EDF7
:10C58000007A77EEC77A37EEC00AD2ED007A37EE3E
:10C59000C00A002887D0B1EE400A84E7DA0FC9BF8D
:10C5A000DA0FC93FFFFFDF3EFFFF973F25AC7C3D21
:10C5B0000DF5113E4712DABDA9AAAA3E98CA4CBE93
:10C5C000FFFF1B40A4DF0600B4DF060070B510EECD
:10C5D000105A25F000440123B4F1FF4FB0EE403A69
:10C5E0000646036004DB60EE003AB0EE630A70BDFD
:10C5F00034B9DFEDCA7AB7EE007AC7EE273AF4E72E
:10C60000B4F1E45F0BDA002DBEBF4FF0FF330360DF
:10C61000B1EE400AFFF77CFBF1EE403AE5E7002D72
:10C6200080F2C082B4F1964FE3DAB4F17A5F9FED05
:10C63000BC5A78DADFEDB90A20EE050A0020FFF7D0
:10C64000ADFCF0EE403AF5EE403AF1EE10FAD0D003
:10C6500023EE230AB0EEC00A85EE000AFFF758FB6E
:10C66000F5EEC03AF1EE10FA4CBF4FF0FF33012364
:10C67000B4F17E5FF0EE402A336000F08D82B4F1B9
:10C68000804FB1EE433A00F087826B0000F1D28117
:10C69000A44B9C4200F3F380B0EE430AFFF738FB53
:10C6A000A14B9C42F1EE407A40F39B80F7EE003ABA
:10C6B00033EEC33A23EE037ADFED9C6A9FED9C6A6A
:10C6C000DFED9C3AA7EE266ADFED9B6AE6EE076A8D
:10C6D0009FED9A6AA6EE876ADFED996AE6EE076A31
:10C6E0009FED986AE6EE873ADFED976AE7EE066A15
:10C6F0009FED966AA6EE876ADFED956AE6EE076A19
:10C700009FED946AA6EE876ADFED936AE6EE076A0C
:10C7100063EE833AE6EE873AB6EE007AE3EE473A06
:10C7200073EEA73AF5E1B1EE407AB0EE470AFFF7B3
:10C73000B7FBB4EE407AF1EE10FA19D0B6EE000A6B
:10C7400027EE007AB0EE470AFFF7AAFB37EE400A61
:10C7500030EE000AF0EE407AFEEECF7A17EE903A15
:10C76000062B39D8DFE803F02312121F1F2B2B00F2
:10C77000DFED7A7A77EEC37A17EE903A03F0010391
:10C7800007EE903A9B00B8EEE70AE9E7F6EE007A8A
:10C7900037EEC00ADFED610A20EE050AFFF746FC1E
:10C7A000F1EE403A4FE7F7EE007A37EEC00ADFEDE0
:10C7B0005B0A20EE050A0020FFF7F0FBF0E7F7EE3A
:10C7C000087A30EE670ADFED550A20EE050AFFF71A
:10C7D0002DFCB1EE400AE3E7F0EE007A30EE670A96
:10C7E000E5E75F4B9C4264DDDFED5E3A73EE633A52
:10C7F00063EEA34A9FED5C6ADFED5C6ADFED5C5A95
:10C800009FED5C5A9FED5C0A24EEA37AE7EE066A80
:10C810009FED5A6AA6EE876ADFED596AE6EE076A6F
:10C820009FED586AA6EE876ADFED576AE7EE265A53
:10C83000DFED566AE5EE876ADFED555AE6EE875A78
:10C84000DFED546AE5EE876ADFED535AA7EE255A0D
:10C85000DFED525AE5EE075A9FED515AA5EE875A81
:10C86000DFED505AE5EE075AE5EEA36ADFED4E3AEA
:10C87000E6EEC73AD4EE863A73EEC03A50E74B4B39
:10C880009C4206DDF0EE003A33EEC33ADFED237A48
:10C8900010E7474B9C4206DDDFED463ADFED1F7A9D
:10C8A00073EE633AA4E7F7EE007A33EE673ADFED12
:10C8B0001B7ADFED416A9FED417A9FED416AA3EE5D
:10C8C000267ADFED406AE7EE036A9FED3F7AA6EE37
:10C8D000837ADFED3E6AE7EE036A9FED487AA6EEC3
:10C8E000837ADFED3B6AE3EE066A9FED3A6AA6EED5
:10C8F000836ADFED396AE6EE036A9FED386AA6EED9
:10C90000836AF7EE006AE6EE036A27EE037AC7EE63
:10C91000263ABEEE007AE3EE073A01E70000000097
:10C92000DB0F49406666663F1F4A3B3FA283D33711
:10C93000679767393F239E3DA1549C3A7E02F23BA4
:10C9400001F0893D752C3C384584E23834B6053A0F
:10C95000C66E3D3B1599A83C661AA53E0000004BEB
:10C9600007336D3E0C5BEC3E6B7BA53976F4B7BAB2
:10C9700067F8663A85300DBACDCDF83D07E7C73B7D
:10C98000474D06BD5EB9F73E27F9A3B9FE7771BBE7
:10C990003D37933C3C2117BEF7E9AF399916143B5C
:10C9A000FEFC28BC155A843D521CE63117A6DD3F1B
:10C9B0001FA69D3FC316BB3F5E3C5B3C78756A3E3D
:10C9C000DBD5523BB24B7A3FE73ABA3FF400223F05
:10C9D000AF72D53DDFEF443F2D390840BE2E1D40DC
